:020000040800F2
:100000003804002001010008090400080504000864
:100010000704000875010008191900080000000015
:10002000000000000000000000000000450500087E
:1000300077010008000000000B040008F10500082B
:100040001B0100081B0100081B0100081B01000820
:100050001B0100081B0100081B01000879010008B2
:100060001B0100081B0100081B0100081B01000800
:100070001B0100081B0100081B0100081B010008F0
:100080001B0100081B0100081B0100081B010008E0
:100090001B0100081B0100081B0100081B010008D0
:1000A0001B0100081B0100081B0100081B010008C0
:1000B000450600081B0100081B0100081B01000881
:1000C0001B0100081B0100081B0100081B010008A0
:1000D0001B010008191600081B0100081B0100087D
:1000E0001B0100081B0100081B010008DFF80CD0F1
:1000F00000F02EF800480047751B00083804002067
:100100000648804706480047FEE7FEE7FEE7FEE7B1
:10011000FEE7FEE7FEE7FEE7FEE7FEE7F50500087F
:10012000ED00000830B50B460146002020220124D6
:1001300009E021FA02F59D4205D303FA02F5491BB5
:1001400004FA02F52844151EA2F10102F1DC30BDCB
:10015000064C074D06E0E06840F0010394E8070014
:1001600098471034AC42F6D3FFF7C4FFC41B000815
:10017000E41B0008FEE7704710B5022000F012F8FB
:100180000221064800F0D2F84FF0804110B1002063
:10019000888410BD888C0249486010BD0008014069
:1001A0000400002010B50446000D00D11CB9FC214C
:1001B00002A001F0AFFC0748046010BD7372635CDD
:1001C00073746D3332663130785F657874692E638D
:1001D00000000000140401402DE9F04104464648A7
:1001E00000260D46844215D04448844212D044482B
:1001F00084420FD0434884420CD04348844209D003
:100200004248844206D04248844203D0B22141A0F1
:1002100001F080FCE87888B104280FD028280DD0A0
:1002200048280BD0142809D0102807D01C2805D046
:10023000182803D0B32137A001F06CFC288818B926
:10024000B42134A001F066FCE87800F00F07C00686
:100250000CD5A878012807D0022805D0032803D0A0
:10026000BB212CA001F056FCA878074328784FF05A
:100270000F0C10F0FF0F4FF0010E1BD021682A88E1
:100280000EFA06F00240824210D1B2000CFA02F3DC
:1002900021EA030307FA02F1EA781943282A02D077
:1002A000482A02D002E0606100E02061761C082E3E
:1002B000E5D321602888FF281CD96168002000F15F
:1002C00008030EFA03F22B88134093420ED18300E9
:1002D0000CFA03F6B14307FA03F6EB783143282B07
:1002E00000D16261EB78482B00D12261401C0828C4
:1002F000E5D36160BDE8F08100080140000C0140D9
:10030000001001400014014000180140001C014091
:10031000002001407372635C73746D333266313058
:10032000785F6770696F2E630000000070B5054646
:10033000274800260C46854216D02648854213D011
:100340002548854210D0254885420DD02448854255
:100350000AD02448854207D02348854204D04FF470
:100360008F7122A001F0D6FB012C2AD0022C28D0BC
:10037000042C26D0082C24D0102C22D0202C20D0C5
:10038000402C1ED0802C1CD0B4F5807F19D0B4F541
:10039000007F16D0B4F5806F13D0B4F5006F10D085
:1003A000B4F5805F0DD0B4F5005F0AD0B4F5804F8E
:1003B00007D0B4F5004F04D040F21F110BA001F09C
:1003C000A9FBA868204200D00126304670BD00007D
:1003D00000080140000C01400010014000140140E1
:1003E00000180140001C0140002001407372635C52
:1003F00073746D3332663130785F6770696F2E6366
:1004000000000000FEE7FEE77047704770B5044645
:100410000C480D46044200D124B940F269410AA0BB
:1004200001F078FB0D4E4DB1012D04D040F26A4130
:1004300005A001F06FFBF069204301E0F069A043E3
:10044000F06170BD003601817372635C73746D334B
:1004500032663130785F7263632E630000100240B1
:1004600070B504460C480D46044200D124B940F250
:100470004A410AA001F04EFB0D4E4DB1012D04D0B2
:1004800040F24B4105A001F045FBB069204301E07B
:10049000B069A043B06170BD0200C0FF7372635CBD
:1004A00073746D3332663130785F7263632E63002C
:1004B0000010024038B501210420FFF7D1FF0121CF
:1004C0000820FFF7CDFF01210802FFF7C9FF40F622
:1004D0008410ADF8000018258DF8035003248DF822
:1004E000024069461448FFF777FE4FF47070ADF88C
:1004F00000008DF803508DF8024069460F48FFF761
:100500006BFE4FF40050ADF8000010208DF8030092
:100510000B4D8DF8024069462846FFF75DFE4821E5
:100520008DF803108DF80240E002ADF80000694636
:100530002846FFF751FE38BD00080140000C01407D
:1005400000200140704700000CB5002226480092B0
:100550000192016841F4803101604FF4A0630168A9
:1005600001F4003101910099491C0091019911B9E0
:1005700000999942F3D10168890333D50121019192
:100580001A490A6842F010020A600A6822F003025F
:100590000A600A6842F002020A60416841604168EC
:1005A0004160416841F480614160416821F47C11FF
:1005B0004160416841F4E8114160016841F0807197
:1005C000016001688901FCD5416821F003014160A7
:1005D000416841F0020141604168C1F38101022993
:1005E000FAD10CBD01920CBD001002400020024067
:1005F000704700000F4810B5016841F0010101602B
:1006000041680D4A1140416001680C4A1140016087
:10061000016821F480210160416821F4FE014160FC
:100620004FF41F018160FFF78FFF05494FF0006015
:10063000086010BD001002400000FFF8FFFFF6FE4A
:1006400008ED00E010B50121880700F081F80121D4
:100650000248FFF76BFE0249086010BD0008014028
:100660000400002070B5044624480D46844234D06E
:10067000B4F1804F31D0224884422ED021488442A8
:100680002BD02148844228D02048844225D02048BD
:10069000844222D01F4884421FD01F4884421CD06D
:1006A0001E48844219D01E48844216D01D488442F8
:1006B00013D01D48844210D01C4884420DD01C48E1
:1006C00084420AD01B48844207D01B48844204D08D
:1006D00040F2845119A001F01DFA55B1012D04D04A
:1006E00040F2855115A001F015FA208840F08000F5
:1006F00002E0208820F08000208070BD002C0140A6
:100700000004004000080040000C004000100040C1
:100710000014004000340140004C014000500140F2
:100720000054014000180040001C00400020004020
:100730000040014000440140004801407372635C86
:1007400073746D3332663130785F74696D2E630077
:1007500070B5044621480D46844234D0B4F1804F30
:1007600031D01F4884422ED01E4884422BD01E48D0
:10077000844228D01D48844225D01D48844222D07E
:100780001C4884421FD01C4884421CD01B48844211
:1007900019D01B48844216D01A48844213D01A48F4
:1007A000844210D0194884420DD0194884420AD09E
:1007B0001848844207D01848844204D040F6772174
:1007C00016A001F0A7F9280A00D125B940F6782132
:1007D00012A001F09FF9E843208270BD002C014077
:1007E0000004004000080040000C004000100040E1
:1007F0000014004000340140004C01400050014012
:100800000054014000180040001C0040002000403F
:100810000040014000440140004801407372635CA5
:1008200073746D3332663130785F74696D2E630096
:1008300070B5044624480D46844234D0B4F1804F4C
:1008400031D0224884422ED0214884422BD02148E6
:10085000844228D02048844225D02048844222D097
:100860001F4884421FD01F4884421CD01E48844227
:1008700019D01E48844216D01D48844213D01D480A
:10088000844210D01C4884420DD01C4884420AD0B7
:100890001B48844207D01B48844204D040F22931CF
:1008A00019A001F037F955B1012D04D040F22A31D9
:1008B00015A001F02FF9208840F0010002E0208807
:1008C00020F00100208070BD002C01400004004099
:1008D00000080040000C00400010004000140040E0
:1008E00000340140004C01400050014000540140E0
:1008F00000180040001C0040002000400040014063
:1009000000440140004801407372635C73746D33AE
:1009100032663130785F74696D2E630070B50446BD
:1009200013480D46844210D0124884420DD012481C
:1009300084420AD01148844207D01148844204D02E
:1009400040F242310FA001F0E5F85DB1012D04D075
:1009500040F243310BA001F0DDF834F8440F40F4CD
:10096000004003E034F8440FC0F30E00208070BD57
:10097000002C01400034014000400140004401408F
:10098000004801407372635C73746D3332663130BA
:10099000785F74696D2E63002DE9F05FDFF8649174
:1009A000DFF864A1DFF864B10D46044648452CD059
:1009B000B4F1804F29D05648844226D0554884420D
:1009C00023D05548844220D054451ED053488442F9
:1009D0001BD05348844218D05248844215D0524804
:1009E000844212D0514884420FD0514884420CD0E6
:1009F0005C450AD04F48844207D04F48844204D017
:100A00004FF48E714DA001F085F8288870B1102840
:100A10000CD020280AD0302808D0602806D07028B2
:100A200004D040F21D1145A001F074F8688830B17F
:100A3000012804D04FF48F7140A001F06BF8288991
:100A400030B1022804D040F21F113CA001F062F83E
:100A5000208C20F001002084218CA788208B2A88FC
:100A600020F0730042EA0008288921F002016E8814
:100A7000084306434C4509D0544507D05C4505D092
:100A80002C48844202D02C48844233D1A88830B10B
:100A9000042804D04FF49E7128A001F03BF8688927
:100AA00030B1082804D040F23D1124A001F032F802
:100AB000E889B0F5007F05D020B14FF49F711FA0E9
:100AC00001F028F8A889B0F5807F05D020B140F268
:100AD0003F111AA001F01EF826F008016889AE88BF
:100AE000084320F00400064327F44071A889EF89E9
:100AF00008430743A780A4F81880E888A0862684C6
:100B0000BDE8F09F002C014000340140004001404E
:100B10000004004000080040000C0040004C014070
:100B2000005001400054014000180040001C0040EB
:100B30000020004000440140004801407372635CA3
:100B400073746D3332663130785F74696D2E630073
:100B500070B5044620480D4684422ED0B4F1804F33
:100B60002BD01E48844228D01D48844225D01D48E1
:100B7000844222D01C4884421FD01C4884421CD08E
:100B80001B48844219D01B48844216D01A4884421C
:100B900013D01A48844210D0194884420DD0194805
:100BA00084420AD01848844207D01848844204D0AE
:100BB00040F2E95116A000F0ADFF082D05D025B197
:100BC00040F2EA5112A000F0A5FF208B20F00800AF
:100BD0002843208370BD0000002C01400004004029
:100BE00000080040000C004000340140004C01406F
:100BF000005001400054014000180040001C00401B
:100C000000200040004001400044014000480140F5
:100C10007372635C73746D3332663130785F7469FC
:100C20006D2E63002DE9F05FDFF850A1DFF850B1C1
:100C30000D46044650451BD0B4F1804F18D05148A2
:100C4000844215D05048844212D0504884420FD07C
:100C50005C450DD04E4884420AD04E48844207D0AD
:100C60004D48844204D040F26F114CA000F052FF76
:100C7000288870B110280CD020280AD0302808D03D
:100C8000602806D0702804D04FF4B87143A000F05B
:100C900041FF688830B1012804D040F271113FA0B3
:100CA00000F038FF288930B1022804D04FF4B97120
:100CB0003AA000F02FFF208C20F010002084228C1E
:100CC000A788208B2B884FF6FF7920F4E64109EAAC
:100CD000032343EA0108298922F0200209EA0111CD
:100CE00011436A8809EA02160E43544501D05C4557
:100CF0003BD1A88830B1042804D040F28F1127A03E
:100D000000F008FF688930B1082804D04FF4C8719A
:100D100022A000F0FFFEE889B0F5007F05D020B1E9
:100D200040F291111DA000F0F5FEA889B0F5807F7A
:100D300005D020B14FF4C97118A000F0EBFE69890D
:100D400026F0800209EA01111143AA8821F040012E
:100D500009EA02160E43A98927F4406209EA8101D3
:100D60001143EA8909EA82070F43A780A4F8188093
:100D7000E88820872684BDE8F09F0000002C014011
:100D8000003401400004004000080040000C004016
:100D9000004C014000180040004001407372635C49
:100DA00073746D3332663130785F74696D2E630011
:100DB00070B5044619480D4684421CD0B4F1804FEA
:100DC00019D01748844216D01648844213D01648CA
:100DD000844210D0154884420DD0154884420AD070
:100DE0001448844207D01448844204D040F202617F
:100DF00012A000F08FFE082D05D025B140F203614E
:100E00000EA000F087FE208B4FF6FF7120F40060EB
:100E100001EA05210143218370BD0000002C01403F
:100E20000004004000080040000C00400034014075
:100E3000004C014000180040004001407372635CA8
:100E400073746D3332663130785F74696D2E630070
:100E50002DE9F05FDFF838A1DFF838B10D46044620
:100E6000504512D0B4F1804F0FD04B4884420CD083
:100E70004A48844209D04A48844206D05C4504D09E
:100E800040F2C11147A000F045FE288870B110283B
:100E90000CD020280AD0302808D0602806D070282E
:100EA00004D04FF4E1713FA000F034FE688830B107
:100EB000012804D040F2C3113AA000F02BFE28898B
:100EC00030B1022804D04FF4E27136A000F022FEC7
:100ED000208C20F480702084208CA788A18B2A8805
:100EE00021F0730142EA010820F4007128894FF6CD
:100EF000FF7909EA00200843698809EA01260643C8
:100F0000544501D05C453BD1A88830B1042804D0B9
:100F10004FF4F07123A000F0FDFD688930B108287E
:100F200004D040F2E1111FA000F0F4FDE889B0F513
:100F3000007F05D020B14FF4F1711AA000F0EAFD56
:100F4000A889B0F5807F05D020B140F2E31115A04B
:100F500000F0E0FD698926F4006209EA01211143ED
:100F6000AA8821F4806109EA02260E43A98927F4A0
:100F7000405209EA01111143EA8909EA02170F43B5
:100F8000A780A4F81C80E888A0872684BDE8F09F8D
:100F9000002C0140003401400004004000080040E3
:100FA000000C00407372635C73746D3332663130D1
:100FB000785F74696D2E630070B5044612480D4663
:100FC000844213D0B4F1804F10D0104884420DD029
:100FD0000F4884420AD00F48844207D00E4884420A
:100FE00004D040F21A610DA000F094FD082D05D048
:100FF00025B140F21B6109A000F08CFDA08B20F010
:1010000008002843A08370BD002C0140000400406C
:1010100000080040000C0040003401407372635C23
:1010200073746D3332663130785F74696D2E63008E
:101030002DE9F05FDFF8E8A0DFF8E8B00D460446E0
:10104000504512D0B4F1804F0FD0374884420CD0B5
:101050003648844209D03648844206D05C4504D0E4
:101060004FF4047133A000F055FD288870B11028AA
:101070000CD020280AD0302808D0602806D070284C
:1010800004D040F211212BA000F044FD688830B15B
:10109000012804D040F2122126A000F03BFD28894F
:1010A00030B1022804D040F2132122A000F032FD1A
:1010B000208C20F480502084218CA688A08B2B8843
:1010C0004FF6FF7920F4E64209EA0327174321F49B
:1010D0000052298909EA013111436A88544509EA15
:1010E000023040EA010801D05C450FD1A889B0F573
:1010F000807F05D020B14FF40C710EA000F00AFDE6
:10110000AA8926F4804009EA82160643A680A783AE
:10111000E888A4F84000A4F82080BDE8F09F000013
:10112000002C014000340140000400400008004051
:10113000000C00407372635C73746D33326631303F
:10114000785F74696D2E630070B5044614480D46CF
:10115000844213D0B4F1804F10D0124884420DD095
:10116000114884420AD01148844207D01048844272
:1011700004D040F232610FA000F0CCFC082D05D065
:1011800025B140F233610BA000F0C4FCA08B4FF6F8
:10119000FF7120F4006001EA05210143A18370BDC5
:1011A000002C01400004004000080040000C0040FA
:1011B000003401407372635C73746D333266313096
:1011C000785F74696D2E63002DE9F041012188B0CC
:1011D000C802FFF745F901210220FFF717F90121A5
:1011E0000420FFF713F940F2CF70ADF8140040F27D
:1011F000CF20ADF810000024404EADF81640ADF8F9
:10120000124004A9304600F051F9DFF8F48004A937
:10121000404600F04BF96320ADF814004720ADF8CC
:101220001000384FADF81640ADF8124004A938460A
:1012300000F03CF96020ADF800000125ADF8025047
:10124000ADF80640ADF8084069463046FFF7A4FB0C
:1012500008213046FFF77CFC69463046FFF7E8FE80
:1012600008213046FFF770FF01213046FFF756FB9B
:1012700001213046FFF7F6F901213046FFF7D8FA91
:1012800069464046FFF7CEFC08214046FFF790FD37
:1012900001214046FFF7E6F901214046FFF7C8FA71
:1012A0001948694645703846FFF776FB08213846ED
:1012B000FFF74EFC69463846FFF7B4FC0821384674
:1012C000FFF776FD69463846FFF7C2FD082138462C
:1012D000FFF772FE69463846FFF7AAFE0821384636
:1012E000FFF732FF01213846FFF7BCF901213846EC
:1012F000FFF79EFA08B0BDE8F0810000002C014025
:1013000000040040000800400000002070B50446C2
:101310001A480D4684422ED0B4F1804F2BD0184885
:10132000844228D01748844225D01748844222D0CE
:10133000164884421FD0164884421CD01548844267
:1013400019D01548844216D01448844213D014484A
:10135000844210D0134884420DD0134884420AD0EE
:101360001248844207D01248844204D040F6F70164
:1013700010A000F0CFFBA58670BD0000002C01403E
:101380000004004000080040000C00400034014010
:10139000004C014000500140005401400018004042
:1013A000001C00400020004000400140004401407B
:1013B000004801407372635C73746D333266313080
:1013C000785F74696D2E630070B5044611480D4650
:1013D00084421CD0B4F1804F19D00F48844216D0FB
:1013E0000E48844213D00E48844210D00D488442E7
:1013F0000DD00D4884420AD00C48844207D00C48D6
:10140000844204D040F605110AA000F083FB258732
:1014100070BD0000002C01400004004000080040A6
:10142000000C004000340140004C01400018004016
:10143000004001407372635C73746D333266313007
:10144000785F74696D2E630070B504460D480D46D3
:10145000844213D0B4F1804F10D00B4884420DD099
:101460000A4884420AD00A48844207D00948844284
:1014700004D040F6211108A000F04CFBA4F8405025
:1014800070BD0000002C0140000400400008004036
:10149000000C0040003401407372635C73746D3360
:1014A00032663130785F74696D2E63002DE9F05F2C
:1014B000444FDFF81481DFF81491DFF814A1DFF84E
:1014C00014B1454E0D460446B8422ED0B4F1804FBB
:1014D0002BD0444529D04C4527D0544525D05C45D8
:1014E00023D03E48844220D0B4421ED03C4884429F
:1014F0001BD03C48844218D03B48844215D03B481E
:10150000844212D03A4884420FD03A4884420CD0E8
:101510003948844209D03948844206D03848844248
:1015200003D0E72137A000F0F5FA688858B11028F9
:1015300009D0202807D0402805D0602803D0E82112
:1015400030A000F0E7FAE88848B1B0F5807F06D017
:10155000B0F5007F03D0E9212AA000F0DBFA208853
:10156000BC420AD0B44208D0B4F1804F05D0444503
:1015700003D04C4501D0544503D120F07001688858
:1015800008435C4506D015498C4203D020F44071D5
:10159000E88808432080A888A08528882085BC4248
:1015A0000AD0B44208D01448844205D0134884427B
:1015B00002D01348844201D1287A20860120A082DB
:1015C000BDE8F09F002C01400004004000080040EE
:1015D000000C0040001000400034014000140040A6
:1015E000004C0140005001400054014000180040F0
:1015F000001C004000200040004001400044014029
:10160000004801407372635C73746D33326631302D
:10161000785F74696D2E630010B5164C40F2255149
:10162000204600F089F8002823D0204600F00AF96F
:10163000124BC0B2104C5988AA280FD049B1598812
:10164000CAB2A0541878C01C824202D141F40040B2
:1016500058805888C1B2022907D008E00029EED18D
:101660004FF4804159802070E9E7A1781970401C3F
:10167000588010BD00380140140000200C000020EC
:101680002DE9F047214F0026DFF88480DFF88490B1
:101690000C460546B8420ED045450CD04D450AD003
:1016A0001D48854207D01D48854204D040F26E3166
:1016B0001BA000F02FFA012C21D0802C1FD0402C31
:1016C0001DD0202C1BD0102C19D0B4F5807F16D043
:1016D000B4F5007F08D0082C11D0042C0FD0022CB8
:1016E0000DD040F26F3107E0BD4208D0454506D02D
:1016F0004D4504D040F2733109A000F00BFA288860
:10170000204200D001263046BDE8F0870038014075
:101710000044004000480040004C004000500040A1
:101720007372635C73746D3332663130785F7573D6
:101730006172742E630000002DE9F047DFF8D88055
:101740000026DFF8D890DFF8D8A00C4605464045C3
:101750000ED04D450CD055450AD03248854207D0B1
:101760003148854204D040F2C13130A000F0D2F9B6
:10177000282C32D0A4F5E06040F66A1727381FD035
:10178000A4F5C06026381BD0A4F5A060253817D07A
:10179000A4F58060243813D0A4F5006046380FD03B
:1017A000BC420DD0B4F5587F17D0B4F5187F14D0D3
:1017B000B4F5B07F11D040F2C2311CA000F0AAF9FC
:1017C000BC420AD1454508D04D4506D0554504D008
:1017D00040F2C63115A000F09DF904F01F0201236C
:1017E000C4F3421103FA02F0012910D0022910D0EB
:1017F000A98A4FEA142203FA02F32A88014202EA74
:10180000030201D002B101263046BDE8F087A98964
:10181000EFE7298AEDE7000000380140004400406E
:1018200000480040004C0040005000407372635C70
:1018300073746D3332663130785F75736172742EF4
:101840006300000010B504460B48844210D00B48DA
:1018500084420DD00A4884420AD00A48844207D004
:101860000948844204D04FF4197108A000F052F9DD
:10187000A088C0F3080010BD0038014000440040BB
:1018800000480040004C0040005000407372635C10
:1018900073746D3332663130785F75736172742E94
:1018A0006300000070B5044610480D46844210D015
:1018B0000F4884420DD00F4884420AD00E4884421B
:1018C00007D00E48844204D040F253210CA000F00F
:1018D00021F9B5F5007F04D34FF4157108A000F08D
:1018E00019F9C5F30800A08070BD00000038014060
:1018F0000044004000480040004C004000500040C0
:101900007372635C73746D3332663130785F7573F4
:101910006172742E63000000FEE700000FB4054BF7
:1019200010B503A9044A029800F018F810BC5DF83D
:1019300014FB0000511B00081000002002E008C842
:10194000121F08C1002AFAD170477047002001E039
:1019500001C1121F002AFBD1704700002DE9FF4F83
:101960008BB09A460F460546002606E025280BD088
:1019700052460D9990476D1C761C28780028F5D1A9
:101980000FB03046BDE8F08F0024A0460122604928
:1019900000E0044315F8013F203B02FA03F008423F
:1019A000F7D128782E2817D115F8010F44F0040438
:1019B0002A280ED06FF02F022878A0F130010929D3
:1019C0000AD808EB880102EB410100EB01086D1C0D
:1019D000F2E757F8048B6D1C287869283ED006DCA6
:1019E0000028CDD063280BD0642804D136E07328BA
:1019F00010D075284BD052460D999047761C85E043
:101A000017F8040B8DF8000000208DF80100E9465E
:101A1000012003E057F8049B4FF0FF3061074FF0BF
:101A2000000401D40AE0641C44450DDA8442FADB68
:101A300019F804100029F6D106E0641C8442FCDB8E
:101A400019F804100029F8D1264404E019F8010B14
:101A500052460D999047641EF8D257E001CF4FF0DF
:101A60000A0B002802DA40422D2102E0210504D5AC
:101A70002B218DF82410012103E0E10705D020215E
:101A8000F7E70DF1200908910CE00021F9E701CFFB
:101A90004FF00A0BF9E75946FEF744FB01F130021B
:101AA00009F8012D0028F6D1ADEB090000F1200B5B
:101AB000600701D44FF00108D84502DDA8EB0B0008
:101AC00000E000208046002406E009A85246005DA0
:101AD0000D999047641C761C08988442F5DB04E05D
:101AE000302052460D999047761CB8F10001A8F1BC
:101AF0000108F5DC05E019F8010B52460D999047F5
:101B0000761CBBF10001ABF1010BF4DC6D1C34E77A
:101B1000092801000A46014601A0FFF7FFFEFEE783
:101B200057726F6E6720706172616D657465727354
:101B30002076616C75653A2066696C652025732096
:101B40006F6E206C696E652025640D0A0000000030
:101B500070B5074D044640212846FFF791FD002847
:101B6000F9D0E1B22846FFF79DFE204670BD000087
:101B700000380140FEF79EFCFFF726FB5A210120AA
:101B800000F002F8FEE7000001EB810149000922A4
:101B9000B1FBF2F1323189B2012807D0074A02289D
:101BA00007D0032808D11046FFF74EBC0448FFF7C2
:101BB0000BBC1046FFF7AABB70470000002C014089
:101BC00000040040E41B0008000000201400000096
:101BD0003C190008F81B0008140000202404000031
:101BE0004C19000800000000000000000000000088
:081BF0000000000000000000ED
:0400000508000101ED
:00000001FF
